{
  "contractName": "MathLib",
  "abi": [
    {
      "constant": true,
      "inputs": [
        {
          "name": "_amount",
          "type": "uint256"
        },
        {
          "name": "_money",
          "type": "uint256"
        }
      ],
      "name": "addToBalance",
      "outputs": [
        {
          "name": "newBalance",
          "type": "uint256"
        }
      ],
      "payable": false,
      "stateMutability": "pure",
      "type": "function"
    }
  ],
  "bytecode": "0x60d061002f600b82828239805160001a6073146000811461001f57610021565bfe5b5030600052607381538281f30073000000000000000000000000000000000000000030146080604052600436106056576000357c0100000000000000000000000000000000000000000000000000000000900463ffffffff168063fd86307714605b575b600080fd5b608160048036038101908080359060200190929190803590602001909291905050506097565b6040518082815260200191505060405180910390f35b60008183019050929150505600a165627a7a723058207d10b97198fee282bb2e4cff1616f4ed42b73f1ff552f1f189f9bca04eb8ce210029",
  "source": "pragma solidity ^0.4.16;\n\nlibrary MathLib {\n  function addToBalance(uint _amount, uint _money) public pure returns (uint newBalance) {\n    return _amount + _money;\n  }\n}\n",
  "sourcePath": "/Users/almudena.barrero.local/Documents/Hackathon/hackathon-examples/payable/contracts/MathLib.sol",
  "compiler": {
    "name": "solc",
    "version": "0.4.24+commit.e67f0147.Emscripten.clang"
  },
  "schemaVersion": "2.0.1",
  "updatedAt": "2018-11-16T23:43:50.427Z"
}