{
  "contractName": "TravelsLocation",
  "abi": [
    {
      "constant": false,
      "inputs": [
        {
          "name": "travelId",
          "type": "uint256"
        }
      ],
      "name": "initTravel",
      "outputs": [],
      "payable": false,
      "stateMutability": "nonpayable",
      "type": "function"
    },
    {
      "constant": false,
      "inputs": [
        {
          "name": "travelId",
          "type": "uint256"
        }
      ],
      "name": "reserveTravel",
      "outputs": [
        {
          "name": "",
          "type": "uint256"
        }
      ],
      "payable": true,
      "stateMutability": "payable",
      "type": "function"
    },
    {
      "constant": false,
      "inputs": [
        {
          "name": "travelId",
          "type": "uint256"
        }
      ],
      "name": "finishTravel",
      "outputs": [],
      "payable": false,
      "stateMutability": "nonpayable",
      "type": "function"
    },
    {
      "constant": false,
      "inputs": [
        {
          "name": "travelId",
          "type": "uint256"
        },
        {
          "name": "passenger",
          "type": "uint256"
        }
      ],
      "name": "makeReport",
      "outputs": [],
      "payable": false,
      "stateMutability": "nonpayable",
      "type": "function"
    },
    {
      "constant": false,
      "inputs": [
        {
          "name": "from",
          "type": "string"
        },
        {
          "name": "to",
          "type": "string"
        },
        {
          "name": "when",
          "type": "uint256"
        },
        {
          "name": "prize",
          "type": "uint256"
        },
        {
          "name": "passengers",
          "type": "uint256"
        }
      ],
      "name": "setTravel",
      "outputs": [
        {
          "name": "",
          "type": "uint256"
        }
      ],
      "payable": true,
      "stateMutability": "payable",
      "type": "function"
    },
    {
      "constant": true,
      "inputs": [
        {
          "name": "travelId",
          "type": "uint256"
        }
      ],
      "name": "getTravel",
      "outputs": [
        {
          "name": "",
          "type": "uint256"
        },
        {
          "name": "",
          "type": "string"
        },
        {
          "name": "",
          "type": "string"
        },
        {
          "name": "",
          "type": "uint256"
        },
        {
          "name": "",
          "type": "uint256"
        },
        {
          "name": "",
          "type": "uint256"
        }
      ],
      "payable": false,
      "stateMutability": "view",
      "type": "function"
    },
    {
      "constant": true,
      "inputs": [
        {
          "name": "travelId",
          "type": "uint256"
        }
      ],
      "name": "getPassenger",
      "outputs": [
        {
          "name": "",
          "type": "uint256"
        }
      ],
      "payable": false,
      "stateMutability": "view",
      "type": "function"
    },
    {
      "constant": false,
      "inputs": [
        {
          "name": "travelId",
          "type": "uint256"
        },
        {
          "name": "passenger",
          "type": "uint256"
        }
      ],
      "name": "makePayment",
      "outputs": [
        {
          "name": "",
          "type": "uint256"
        }
      ],
      "payable": true,
      "stateMutability": "payable",
      "type": "function"
    },
    {
      "constant": true,
      "inputs": [],
      "name": "travelsCount",
      "outputs": [
        {
          "name": "",
          "type": "uint256"
        }
      ],
      "payable": false,
      "stateMutability": "view",
      "type": "function"
    },
    {
      "constant": false,
      "inputs": [
        {
          "name": "travelId",
          "type": "uint256"
        },
        {
          "name": "locationDriver",
          "type": "string"
        }
      ],
      "name": "initTravelLocation",
      "outputs": [],
      "payable": false,
      "stateMutability": "nonpayable",
      "type": "function"
    },
    {
      "constant": false,
      "inputs": [
        {
          "name": "travelId",
          "type": "uint256"
        },
        {
          "name": "locationDriver",
          "type": "string"
        }
      ],
      "name": "finishTravelLocation",
      "outputs": [],
      "payable": false,
      "stateMutability": "nonpayable",
      "type": "function"
    },
    {
      "constant": false,
      "inputs": [
        {
          "name": "travelId",
          "type": "uint256"
        },
        {
          "name": "passenger",
          "type": "uint256"
        },
        {
          "name": "passengerLocation",
          "type": "string"
        }
      ],
      "name": "makeReportLocation",
      "outputs": [],
      "payable": false,
      "stateMutability": "nonpayable",
      "type": "function"
    }
  ],
  "bytecode": "0x608060405260008081905550611d538061001a6000396000f3006080604052600436106100ba576000357c0100000000000000000000000000000000000000000000000000000000900463ffffffff168063072ea813146100bf5780630e5d65d7146101325780630ef054f01461015f57806333cc28e5146101d25780634871e356146102065780637a2b59a314610233578063b30a6ffc1461026a578063c5de62861461033e578063cc9324701461046c578063d390f974146104ad578063e8e0c520146104eb578063f70af45014610568575b600080fd5b3480156100cb57600080fd5b5061013060048036038101908080359060200190929190803590602001908201803590602001908080601f0160208091040260200160405190810160405280939291908181526020018383808284378201915050505050509192919290505050610593565b005b34801561013e57600080fd5b5061015d6004803603810190808035906020019092919050505061079f565b005b34801561016b57600080fd5b506101d060048036038101908080359060200190929190803590602001908201803590602001908080601f0160208091040260200160405190810160405280939291908181526020018383808284378201915050505050509192919290505050610932565b005b6101f060048036038101908080359060200190929190505050610b3e565b6040518082815260200191505060405180910390f35b34801561021257600080fd5b5061023160048036038101908080359060200190929190505050610c54565b005b34801561023f57600080fd5b506102686004803603810190808035906020019092919080359060200190929190505050610f49565b005b610328600480360381019080803590602001908201803590602001908080601f0160208091040260200160405190810160405280939291908181526020018383808284378201915050505050509192919290803590602001908201803590602001908080601f0160208091040260200160405190810160405280939291908181526020018383808284378201915050505050509192919290803590602001909291908035906020019092919080359060200190929190505050611165565b6040518082815260200191505060405180910390f35b34801561034a57600080fd5b5061036960048036038101908080359060200190929190505050611425565b604051808781526020018060200180602001868152602001858152602001848152602001838103835288818151815260200191508051906020019080838360005b838110156103c55780820151818401526020810190506103aa565b50505050905090810190601f1680156103f25780820380516001836020036101000a031916815260200191505b50838103825287818151815260200191508051906020019080838360005b8381101561042b578082015181840152602081019050610410565b50505050905090810190601f1680156104585780820380516001836020036101000a031916815260200191505b509850505050505050505060405180910390f35b34801561047857600080fd5b50610497600480360381019080803590602001909291905050506116c0565b6040518082815260200191505060405180910390f35b6104d5600480360381019080803590602001909291908035906020019092919050505061179e565b6040518082815260200191505060405180910390f35b3480156104f757600080fd5b506105666004803603810190808035906020019092919080359060200190929190803590602001908201803590602001908080601f01602080910402602001604051908101604052809392919081815260200183838082843782019150505050505091929192905050506119a1565b005b34801561057457600080fd5b5061057d611baf565b6040518082815260200191505060405180910390f35b6003828154811015156105a257fe5b90600052602060002090600c02016001018054600181600116156101000203166002900480601f0160208091040260200160405190810160405280929190818152602001828054600181600116156101000203166002900480156106475780601f1061061c57610100808354040283529160200191610647565b820191906000526020600020905b81548152906001019060200180831161062a57829003601f168201915b505050505081806040518082805190602001908083835b602083101515610683578051825260208201915060208101905060208303925061065e565b6001836020036101000a038019825116818451168082178552505050505050905001915050604051809103902060001916826040518082805190602001908083835b6020831015156106ea57805182526020820191506020810190506020830392506106c5565b6001836020036101000a038019825116818451168082178552505050505050905001915050604051809103902060001916141515610790576040517f08c379a00000000000000000000000000000000000000000000000000000000081526004018080602001828103825260118152602001807f4e6f20647269766572204164647265737300000000000000000000000000000081525060200191505060405180910390fd5b6107998461079f565b50505050565b60006002828154811015156107b057fe5b90600052602060002090600c0201600b0160009054906101000a900473ffffffffffffffffffffffffffffffffffffffff168073ffffffffffffffffffffffffffffffffffffffff163373ffffffffffffffffffffffffffffffffffffffff16141515610885576040517f08c379a00000000000000000000000000000000000000000000000000000000081526004018080602001828103825260118152602001807f4e6f20647269766572204164647265737300000000000000000000000000000081525060200191505060405180910390fd5b60028381548110151561089457fe5b90600052602060002090600c020191506103848260030154014211806108c1575081600601548260070154145b1515610910576040517f08c379a0000000000000000000000000000000000000000000000000000000008152600401808060200182810382526000815260200160200191505060405180910390fd5b600182600b0160146101000a81548160ff021916908315150217905550505050565b60038281548110151561094157fe5b90600052602060002090600c02016002018054600181600116156101000203166002900480601f0160208091040260200160405190810160405280929190818152602001828054600181600116156101000203166002900480156109e65780601f106109bb576101008083540402835291602001916109e6565b820191906000526020600020905b8154815290600101906020018083116109c957829003601f168201915b505050505081806040518082805190602001908083835b602083101515610a2257805182526020820191506020810190506020830392506109fd565b6001836020036101000a038019825116818451168082178552505050505050905001915050604051809103902060001916826040518082805190602001908083835b602083101515610a895780518252602082019150602081019050602083039250610a64565b6001836020036101000a038019825116818451168082178552505050505050905001915050604051809103902060001916141515610b2f576040517f08c379a00000000000000000000000000000000000000000000000000000000081526004018080602001828103825260118152602001807f4e6f20647269766572204164647265737300000000000000000000000000000081525060200191505060405180910390fd5b610b3884610c54565b50505050565b600080600283815481101515610b5057fe5b90600052602060002090600c0201905060028160040154811515610b7057fe5b0434148015610b86575080600501548160060154105b1515610bd5576040517f08c379a0000000000000000000000000000000000000000000000000000000008152600401808060200182810382526000815260200160200191505060405180910390fd5b806006016000815480929190600101919050555033816008018260060154815481101515610bff57fe5b9060005260206000200160006101000a81548173ffffffffffffffffffffffffffffffffffffffff021916908373ffffffffffffffffffffffffffffffffffffffff1602179055508060060154915050919050565b600080600283815481101515610c6657fe5b90600052602060002090600c0201600b0160009054906101000a900473ffffffffffffffffffffffffffffffffffffffff168073ffffffffffffffffffffffffffffffffffffffff163373ffffffffffffffffffffffffffffffffffffffff16141515610d3b576040517f08c379a00000000000000000000000000000000000000000000000000000000081526004018080602001828103825260118152602001807f4e6f20647269766572204164647265737300000000000000000000000000000081525060200191505060405180910390fd5b600284815481101515610d4a57fe5b90600052602060002090600c02019250600183600b0160156101000a81548160ff021916908315150217905550600191505b6001836006015401821015610f435760008360090183815481101515610d9e57fe5b9060005260206000200160009054906101000a900473ffffffffffffffffffffffffffffffffffffffff1673ffffffffffffffffffffffffffffffffffffffff16141515610e36573373ffffffffffffffffffffffffffffffffffffffff166108fc84600401549081150290604051600060405180830381858888f19350505050158015610e30573d6000803e3d6000fd5b50610f36565b600083600a0183815481101515610e4957fe5b9060005260206000200160009054906101000a900473ffffffffffffffffffffffffffffffffffffffff1673ffffffffffffffffffffffffffffffffffffffff161415610eec573373ffffffffffffffffffffffffffffffffffffffff166108fc60028560040154811515610eba57fe5b049081150290604051600060405180830381858888f19350505050158015610ee6573d6000803e3d6000fd5b50610f35565b3373ffffffffffffffffffffffffffffffffffffffff166108fc60059081150290604051600060405180830381858888f19350505050158015610f33573d6000803e3d6000fd5b505b5b8180600101925050610d7c565b50505050565b6000600283815481101515610f5a57fe5b90600052602060002090600c020160080182815481101515610f7857fe5b9060005260206000200160009054906101000a900473ffffffffffffffffffffffffffffffffffffffff168073ffffffffffffffffffffffffffffffffffffffff163373ffffffffffffffffffffffffffffffffffffffff16141515611046576040517f08c379a00000000000000000000000000000000000000000000000000000000081526004018080602001828103825260118152602001807f4e6f20647269766572204164647265737300000000000000000000000000000081525060200191505060405180910390fd5b60028481548110151561105557fe5b90600052602060002090600c0201915061038482600301540142101580156110a8575060028481548110151561108757fe5b90600052602060002090600c0201600b0160149054906101000a900460ff16155b15156110f7576040517f08c379a0000000000000000000000000000000000000000000000000000000008152600401808060200182810382526000815260200160200191505060405180910390fd5b81600a013390806001815401808255809150509060018203906000526020600020016000909192909190916101000a81548173ffffffffffffffffffffffffffffffffffffffff021916908373ffffffffffffffffffffffffffffffffffffffff1602179055505050505050565b6000806000815480929190600101919050555060026101c06040519081016040528060005481526020018881526020018781526020018681526020018581526020018481526020016001815260200160008152602001600185016040519080825280602002602001820160405280156111ed5781602001602082028038833980820191505090505b508152602001600185016040519080825280602002602001820160405280156112255781602001602082028038833980820191505090505b5081526020016001850160405190808252806020026020018201604052801561125d5781602001602082028038833980820191505090505b5081526020013373ffffffffffffffffffffffffffffffffffffffff168152602001600015158152602001600015158152509080600181540180825580915050906001820390600052602060002090600c0201600090919290919091506000820151816000015560208201518160010190805190602001906112e0929190611bb5565b5060408201518160020190805190602001906112fd929190611bb5565b50606082015181600301556080820151816004015560a0820151816005015560c0820151816006015560e0820151816007015561010082015181600801908051906020019061134d929190611c35565b5061012082015181600901908051906020019061136b929190611c35565b5061014082015181600a019080519060200190611389929190611c35565b5061016082015181600b0160006101000a81548173ffffffffffffffffffffffffffffffffffffffff021916908373ffffffffffffffffffffffffffffffffffffffff16021790555061018082015181600b0160146101000a81548160ff0219169083151502179055506101a082015181600b0160156101000a81548160ff021916908315150217905550505050600054905095945050505050565b6000606080600080600060028781548110151561143e57fe5b90600052602060002090600c0201600b0160159054906101000a900460ff1615156116705760028781548110151561147257fe5b90600052602060002090600c02016000015460028881548110151561149357fe5b90600052602060002090600c02016001016002898154811015156114b357fe5b90600052602060002090600c020160020160028a8154811015156114d357fe5b90600052602060002090600c02016003015460028b8154811015156114f457fe5b90600052602060002090600c02016005015460028c81548110151561151557fe5b90600052602060002090600c020160060154848054600181600116156101000203166002900480601f0160208091040260200160405190810160405280929190818152602001828054600181600116156101000203166002900480156115bc5780601f10611591576101008083540402835291602001916115bc565b820191906000526020600020905b81548152906001019060200180831161159f57829003601f168201915b50505050509450838054600181600116156101000203166002900480601f0160208091040260200160405190810160405280929190818152602001828054600181600116156101000203166002900480156116585780601f1061162d57610100808354040283529160200191611658565b820191906000526020600020905b81548152906001019060200180831161163b57829003601f168201915b505050505093509550955095509550955095506116b7565b600080600080839350602060405190810160405280600081525092919060206040519081016040528060008152509291908292508191508090509550955095509550955095505b91939550919395565b600080600190505b60016002848154811015156116d957fe5b90600052602060002090600c02016006015401811015611793573373ffffffffffffffffffffffffffffffffffffffff1660028481548110151561171957fe5b90600052602060002090600c02016008018281548110151561173757fe5b9060005260206000200160009054906101000a900473ffffffffffffffffffffffffffffffffffffffff1673ffffffffffffffffffffffffffffffffffffffff16141561178657809150611798565b80806001019150506116c8565b600091505b50919050565b6000806002848154811015156117b057fe5b90600052602060002090600c0201600801838154811015156117ce57fe5b9060005260206000200160009054906101000a900473ffffffffffffffffffffffffffffffffffffffff168073ffffffffffffffffffffffffffffffffffffffff163373ffffffffffffffffffffffffffffffffffffffff1614151561189c576040517f08c379a00000000000000000000000000000000000000000000000000000000081526004018080602001828103825260118152602001807f4e6f20647269766572204164647265737300000000000000000000000000000081525060200191505060405180910390fd5b6002858154811015156118ab57fe5b90600052602060002090600c02019150600282600401548115156118cb57fe5b043414151561191d576040517f08c379a0000000000000000000000000000000000000000000000000000000008152600401808060200182810382526000815260200160200191505060405180910390fd5b816009013390806001815401808255809150509060018203906000526020600020016000909192909190916101000a81548173ffffffffffffffffffffffffffffffffffffffff021916908373ffffffffffffffffffffffffffffffffffffffff160217905550508160070160008154809291906001019190505550505092915050565b6003838154811015156119b057fe5b90600052602060002090600c02016001018054600181600116156101000203166002900480601f016020809104026020016040519081016040528092919081815260200182805460018160011615610100020316600290048015611a555780601f10611a2a57610100808354040283529160200191611a55565b820191906000526020600020905b815481529060010190602001808311611a3857829003601f168201915b505050505081806040518082805190602001908083835b602083101515611a915780518252602082019150602081019050602083039250611a6c565b6001836020036101000a038019825116818451168082178552505050505050905001915050604051809103902060001916826040518082805190602001908083835b602083101515611af85780518252602082019150602081019050602083039250611ad3565b6001836020036101000a038019825116818451168082178552505050505050905001915050604051809103902060001916141515611b9e576040517f08c379a00000000000000000000000000000000000000000000000000000000081526004018080602001828103825260118152602001807f4e6f20647269766572204164647265737300000000000000000000000000000081525060200191505060405180910390fd5b611ba88585610f49565b5050505050565b60005481565b828054600181600116156101000203166002900490600052602060002090601f016020900481019282601f10611bf657805160ff1916838001178555611c24565b82800160010185558215611c24579182015b82811115611c23578251825591602001919060010190611c08565b5b509050611c319190611cbf565b5090565b828054828255906000526020600020908101928215611cae579160200282015b82811115611cad5782518260006101000a81548173ffffffffffffffffffffffffffffffffffffffff021916908373ffffffffffffffffffffffffffffffffffffffff16021790555091602001919060010190611c55565b5b509050611cbb9190611ce4565b5090565b611ce191905b80821115611cdd576000816000905550600101611cc5565b5090565b90565b611d2491905b80821115611d2057600081816101000a81549073ffffffffffffffffffffffffffffffffffffffff021916905550600101611cea565b5090565b905600a165627a7a7230582036092528b59bdda67eccbb0e035f7f7c1ce6a4d4bde0244d142a28e9b04595df0029",
  "source": "// solium-disable linebreak-style\npragma solidity ^0.4.24;\n\nimport \"./TravelsContract.sol\";\n\ncontract TravelsLocation is TravelsContract{\n\n    Travel[] private travels;\n\n  \n    modifier onlyDriver(address _driverAdrress) {\n        require(msg.sender == _driverAdrress, \"No driver Address\");\n        _;\n    }\n\n    modifier onlyPassengers(address _passengerAdrress){\n        require(msg.sender == _passengerAdrress, \"No driver Address\");\n        _;\n    }\n    modifier samePlace(string travelPlace, string userPlace){\n        require(keccak256(travelPlace) == keccak256(userPlace), \"No driver Address\");\n        _;\n    }\n\n    function initTravelLocation(uint travelId, string locationDriver) public samePlace(travels[travelId].from, locationDriver) {\n        initTravel(travelId);\n    }\n  \n    function finishTravelLocation(uint travelId, string locationDriver) public samePlace(travels[travelId].to, locationDriver){\n        finishTravel(travelId);\n    }\n\n    function makeReportLocation(uint travelId, uint passenger,string passengerLocation) public\n    samePlace(travels[travelId].from, passengerLocation){\n        makeReport(travelId, passenger);\n    }\n}",
  "sourcePath": "/Users/jorge.gonzalez.local/projects/blockchain/blablachain/contracts/TravelsLocation.sol",
  "compiler": {
    "name": "solc",
    "version": "0.4.24+commit.e67f0147.Emscripten.clang"
  },
  "schemaVersion": "2.0.1",
  "updatedAt": "2018-11-17T08:49:33.992Z"
}