{
  "contractName": "TravelsContract",
  "abi": [
    {
      "constant": true,
      "inputs": [],
      "name": "travelsCount",
      "outputs": [
        {
          "name": "",
          "type": "uint256"
        }
      ],
      "payable": false,
      "stateMutability": "view",
      "type": "function"
    },
    {
      "inputs": [],
      "payable": false,
      "stateMutability": "nonpayable",
      "type": "constructor"
    },
    {
      "constant": false,
      "inputs": [
        {
          "name": "from",
          "type": "string"
        },
        {
          "name": "to",
          "type": "string"
        },
        {
          "name": "when",
          "type": "uint256"
        },
        {
          "name": "prize",
          "type": "uint256"
        },
        {
          "name": "passengers",
          "type": "uint256"
        }
      ],
      "name": "setTravel",
      "outputs": [
        {
          "name": "",
          "type": "uint256"
        }
      ],
      "payable": true,
      "stateMutability": "payable",
      "type": "function"
    },
    {
      "constant": true,
      "inputs": [
        {
          "name": "travelId",
          "type": "uint256"
        }
      ],
      "name": "getTravel",
      "outputs": [
        {
          "name": "",
          "type": "string"
        },
        {
          "name": "",
          "type": "string"
        },
        {
          "name": "",
          "type": "uint256"
        },
        {
          "name": "",
          "type": "uint256"
        },
        {
          "name": "",
          "type": "uint256"
        }
      ],
      "payable": false,
      "stateMutability": "view",
      "type": "function"
    },
    {
      "constant": false,
      "inputs": [
        {
          "name": "travelId",
          "type": "uint256"
        }
      ],
      "name": "reserveTravel",
      "outputs": [
        {
          "name": "",
          "type": "uint256"
        }
      ],
      "payable": true,
      "stateMutability": "payable",
      "type": "function"
    },
    {
      "constant": false,
      "inputs": [
        {
          "name": "travelId",
          "type": "uint256"
        },
        {
          "name": "passenger",
          "type": "uint256"
        }
      ],
      "name": "makePayment",
      "outputs": [
        {
          "name": "",
          "type": "uint256"
        }
      ],
      "payable": true,
      "stateMutability": "payable",
      "type": "function"
    },
    {
      "constant": false,
      "inputs": [
        {
          "name": "travelId",
          "type": "uint256"
        }
      ],
      "name": "initTravel",
      "outputs": [],
      "payable": false,
      "stateMutability": "nonpayable",
      "type": "function"
    },
    {
      "constant": false,
      "inputs": [
        {
          "name": "travelId",
          "type": "uint256"
        }
      ],
      "name": "finishTravel",
      "outputs": [],
      "payable": false,
      "stateMutability": "nonpayable",
      "type": "function"
    },
    {
      "constant": false,
      "inputs": [
        {
          "name": "travelId",
          "type": "uint256"
        },
        {
          "name": "passenger",
          "type": "uint256"
        }
      ],
      "name": "makeReport",
      "outputs": [],
      "payable": false,
      "stateMutability": "nonpayable",
      "type": "function"
    },
    {
      "constant": true,
      "inputs": [
        {
          "name": "travelId",
          "type": "uint256"
        }
      ],
      "name": "getPassenger",
      "outputs": [
        {
          "name": "",
          "type": "uint256"
        }
      ],
      "payable": false,
      "stateMutability": "view",
      "type": "function"
    }
  ],
  "bytecode": "0x608060405234801561001057600080fd5b506000808190555061143b806100276000396000f300608060405260043610610099576000357c0100000000000000000000000000000000000000000000000000000000900463ffffffff1680630e5d65d71461009e57806333cc28e5146100cb5780634871e356146100ff5780637a2b59a31461012c578063b30a6ffc14610163578063c5de628614610237578063cc9324701461035e578063d390f9741461039f578063f70af450146103dd575b600080fd5b3480156100aa57600080fd5b506100c960048036038101908080359060200190929190505050610408565b005b6100e96004803603810190808035906020019092919050505061052f565b6040518082815260200191505060405180910390f35b34801561010b57600080fd5b5061012a60048036038101908080359060200190929190505050610645565b005b34801561013857600080fd5b50610161600480360381019080803590602001909291908035906020019092919050505061093a565b005b610221600480360381019080803590602001908201803590602001908080601f0160208091040260200160405190810160405280939291908181526020018383808284378201915050505050509192919290803590602001908201803590602001908080601f0160208091040260200160405190810160405280939291908181526020018383808284378201915050505050509192919290803590602001909291908035906020019092919080359060200190929190505050610ac4565b6040518082815260200191505060405180910390f35b34801561024357600080fd5b5061026260048036038101908080359060200190929190505050610dd4565b604051808060200180602001868152602001858152602001848152602001838103835288818151815260200191508051906020019080838360005b838110156102b857808201518184015260208101905061029d565b50505050905090810190601f1680156102e55780820380516001836020036101000a031916815260200191505b50838103825287818151815260200191508051906020019080838360005b8381101561031e578082015181840152602081019050610303565b50505050905090810190601f16801561034b5780820380516001836020036101000a031916815260200191505b5097505050505050505060405180910390f35b34801561036a57600080fd5b5061038960048036038101908080359060200190929190505050610fca565b6040518082815260200191505060405180910390f35b6103c760048036038101908080359060200190929190803590602001909291905050506110a8565b6040518082815260200191505060405180910390f35b3480156103e957600080fd5b506103f2611297565b6040518082815260200191505060405180910390f35b600060028281548110151561041957fe5b90600052602060002090600b0201600a0160009054906101000a900473ffffffffffffffffffffffffffffffffffffffff168073ffffffffffffffffffffffffffffffffffffffff163373ffffffffffffffffffffffffffffffffffffffff161415156104ee576040517f08c379a00000000000000000000000000000000000000000000000000000000081526004018080602001828103825260118152602001807f4e6f20647269766572204164647265737300000000000000000000000000000081525060200191505060405180910390fd5b6002838154811015156104fd57fe5b90600052602060002090600b02019150600182600a0160146101000a81548160ff021916908315150217905550505050565b60008060028381548110151561054157fe5b90600052602060002090600b020190506002816004015481151561056157fe5b0434148015610577575080600501548160060154105b15156105c6576040517f08c379a0000000000000000000000000000000000000000000000000000000008152600401808060200182810382526000815260200160200191505060405180910390fd5b8060060160008154809291906001019190505550338160070182600601548154811015156105f057fe5b9060005260206000200160006101000a81548173ffffffffffffffffffffffffffffffffffffffff021916908373ffffffffffffffffffffffffffffffffffffffff1602179055508060060154915050919050565b60008060028381548110151561065757fe5b90600052602060002090600b0201600a0160009054906101000a900473ffffffffffffffffffffffffffffffffffffffff168073ffffffffffffffffffffffffffffffffffffffff163373ffffffffffffffffffffffffffffffffffffffff1614151561072c576040517f08c379a00000000000000000000000000000000000000000000000000000000081526004018080602001828103825260118152602001807f4e6f20647269766572204164647265737300000000000000000000000000000081525060200191505060405180910390fd5b60028481548110151561073b57fe5b90600052602060002090600b02019250600183600a0160156101000a81548160ff021916908315150217905550600191505b6001836006015401821015610934576000836008018381548110151561078f57fe5b9060005260206000200160009054906101000a900473ffffffffffffffffffffffffffffffffffffffff1673ffffffffffffffffffffffffffffffffffffffff16141515610827573373ffffffffffffffffffffffffffffffffffffffff166108fc84600401549081150290604051600060405180830381858888f19350505050158015610821573d6000803e3d6000fd5b50610927565b6000836009018381548110151561083a57fe5b9060005260206000200160009054906101000a900473ffffffffffffffffffffffffffffffffffffffff1673ffffffffffffffffffffffffffffffffffffffff1614156108dd573373ffffffffffffffffffffffffffffffffffffffff166108fc600285600401548115156108ab57fe5b049081150290604051600060405180830381858888f193505050501580156108d7573d6000803e3d6000fd5b50610926565b3373ffffffffffffffffffffffffffffffffffffffff166108fc60059081150290604051600060405180830381858888f19350505050158015610924573d6000803e3d6000fd5b505b5b818060010192505061076d565b50505050565b600060028381548110151561094b57fe5b90600052602060002090600b02016007018281548110151561096957fe5b9060005260206000200160009054906101000a900473ffffffffffffffffffffffffffffffffffffffff168073ffffffffffffffffffffffffffffffffffffffff163373ffffffffffffffffffffffffffffffffffffffff16141515610a37576040517f08c379a00000000000000000000000000000000000000000000000000000000081526004018080602001828103825260118152602001807f4e6f20647269766572204164647265737300000000000000000000000000000081525060200191505060405180910390fd5b600284815481101515610a4657fe5b90600052602060002090600b02019150816009013390806001815401808255809150509060018203906000526020600020016000909192909190916101000a81548173ffffffffffffffffffffffffffffffffffffffff021916908373ffffffffffffffffffffffffffffffffffffffff1602179055505050505050565b60008160050234148015610ad9575060018210155b1515610b28576040517f08c379a0000000000000000000000000000000000000000000000000000000008152600401808060200182810382526000815260200160200191505060405180910390fd5b600080815480929190600101919050555060026101a06040519081016040528060005481526020018881526020018781526020018681526020018581526020018481526020016001815260200160018501604051908082528060200260200182016040528015610ba75781602001602082028038833980820191505090505b50815260200160018501604051908082528060200260200182016040528015610bdf5781602001602082028038833980820191505090505b50815260200160018501604051908082528060200260200182016040528015610c175781602001602082028038833980820191505090505b5081526020013373ffffffffffffffffffffffffffffffffffffffff168152602001600015158152602001600015158152509080600181540180825580915050906001820390600052602060002090600b020160009091929091909150600082015181600001556020820151816001019080519060200190610c9a92919061129d565b506040820151816002019080519060200190610cb792919061129d565b50606082015181600301556080820151816004015560a0820151816005015560c0820151816006015560e0820151816007019080519060200190610cfc92919061131d565b50610100820151816008019080519060200190610d1a92919061131d565b50610120820151816009019080519060200190610d3892919061131d565b5061014082015181600a0160006101000a81548173ffffffffffffffffffffffffffffffffffffffff021916908373ffffffffffffffffffffffffffffffffffffffff16021790555061016082015181600a0160146101000a81548160ff02191690831515021790555061018082015181600a0160156101000a81548160ff021916908315150217905550505050600054905095945050505050565b6060806000806000600286815481101515610deb57fe5b90600052602060002090600b0201600101600287815481101515610e0b57fe5b90600052602060002090600b0201600201600288815481101515610e2b57fe5b90600052602060002090600b020160030154600289815481101515610e4c57fe5b90600052602060002090600b02016005015460028a815481101515610e6d57fe5b90600052602060002090600b020160060154848054600181600116156101000203166002900480601f016020809104026020016040519081016040528092919081815260200182805460018160011615610100020316600290048015610f145780601f10610ee957610100808354040283529160200191610f14565b820191906000526020600020905b815481529060010190602001808311610ef757829003601f168201915b50505050509450838054600181600116156101000203166002900480601f016020809104026020016040519081016040528092919081815260200182805460018160011615610100020316600290048015610fb05780601f10610f8557610100808354040283529160200191610fb0565b820191906000526020600020905b815481529060010190602001808311610f9357829003601f168201915b505050505093509450945094509450945091939590929450565b600080600190505b6001600284815481101515610fe357fe5b90600052602060002090600b0201600601540181101561109d573373ffffffffffffffffffffffffffffffffffffffff1660028481548110151561102357fe5b90600052602060002090600b02016007018281548110151561104157fe5b9060005260206000200160009054906101000a900473ffffffffffffffffffffffffffffffffffffffff1673ffffffffffffffffffffffffffffffffffffffff161415611090578091506110a2565b8080600101915050610fd2565b600091505b50919050565b6000806002848154811015156110ba57fe5b90600052602060002090600b0201600701838154811015156110d857fe5b9060005260206000200160009054906101000a900473ffffffffffffffffffffffffffffffffffffffff168073ffffffffffffffffffffffffffffffffffffffff163373ffffffffffffffffffffffffffffffffffffffff161415156111a6576040517f08c379a00000000000000000000000000000000000000000000000000000000081526004018080602001828103825260118152602001807f4e6f20647269766572204164647265737300000000000000000000000000000081525060200191505060405180910390fd5b6002858154811015156111b557fe5b90600052602060002090600b02019150600282600401548115156111d557fe5b0434141515611227576040517f08c379a0000000000000000000000000000000000000000000000000000000008152600401808060200182810382526000815260200160200191505060405180910390fd5b816008013390806001815401808255809150509060018203906000526020600020016000909192909190916101000a81548173ffffffffffffffffffffffffffffffffffffffff021916908373ffffffffffffffffffffffffffffffffffffffff16021790555050505092915050565b60005481565b828054600181600116156101000203166002900490600052602060002090601f016020900481019282601f106112de57805160ff191683800117855561130c565b8280016001018555821561130c579182015b8281111561130b5782518255916020019190600101906112f0565b5b50905061131991906113a7565b5090565b828054828255906000526020600020908101928215611396579160200282015b828111156113955782518260006101000a81548173ffffffffffffffffffffffffffffffffffffffff021916908373ffffffffffffffffffffffffffffffffffffffff1602179055509160200191906001019061133d565b5b5090506113a391906113cc565b5090565b6113c991905b808211156113c55760008160009055506001016113ad565b5090565b90565b61140c91905b8082111561140857600081816101000a81549073ffffffffffffffffffffffffffffffffffffffff0219169055506001016113d2565b5090565b905600a165627a7a723058203003a57cf7eead1ec04c2ad73ae83df1579049fbef14192ba9563558fdae85a80029",
  "source": "// solium-disable linebreak-style\r\npragma solidity ^0.4.24;\r\n\r\ncontract TravelsContract {\r\n  // Array pets owners\r\n    uint public travelsCount;\r\n    uint[] travelsId;\r\n    Travel[] private travels;\r\n\r\n    constructor() public {\r\n        travelsCount = 0;\r\n    }\r\n\r\n    modifier onlyDriver(address _driverAdrress) {\r\n        require(msg.sender == _driverAdrress, \"No driver Address\");\r\n        _;\r\n    }\r\n\r\n    modifier onlyPassengers(address _passengerAdrress){\r\n        require(msg.sender == _passengerAdrress, \"No driver Address\");\r\n        _;\r\n    }\r\n    \r\n  // Adopting pet function\r\n    function setTravel(string from, string to, uint when, uint prize, uint passengers) public payable returns (uint){\r\n        require(msg.value == 5 * passengers && passengers >= 1, \"\");\r\n        travelsCount++;\r\n        travels.push(\r\n            Travel(travelsCount, from, to, when, prize, passengers, 1, new address[](passengers+1), new address[](passengers+1), new address[](passengers+1), msg.sender, false, false));\r\n        return travelsCount;\r\n    }\r\n\r\n    function getTravel(uint travelId) public view returns(string, string, uint, uint, uint){\r\n        return(travels[travelId].from, \r\n        travels[travelId].to,\r\n        travels[travelId].when,\r\n        travels[travelId].numPassengers,\r\n        travels[travelId].numPassengersReserved);\r\n    }\r\n\r\n    function reserveTravel(uint travelId) public payable returns (uint){\r\n        Travel travel = travels[travelId];\r\n        require(msg.value == travel.prize/2 && travel.numPassengersReserved < travel.numPassengers, \"\");\r\n        travel.numPassengersReserved++;\r\n        travel.passengersAddress[travel.numPassengersReserved] = msg.sender;\r\n        return travel.numPassengersReserved;\r\n    }\r\n\r\n    function makePayment(uint travelId, uint passenger) public\r\n    onlyPassengers(travels[travelId].passengersAddress[passenger]) payable returns (uint) {\r\n        Travel travel = travels[travelId];\r\n        require(msg.value == travel.prize / 2, \"\");\r\n        travel.passengersPayed.push(msg.sender);\r\n    }\r\n\r\n    function initTravel(uint travelId) public onlyDriver(travels[travelId].driverAddress) {\r\n        Travel travel = travels[travelId];\r\n       // require(now >= travel.when + 15, \"\");\r\n        travel.travelStarted = true;\r\n    }\r\n  \r\n    function finishTravel(uint travelId) public onlyDriver(travels[travelId].driverAddress) {\r\n        Travel travel = travels[travelId];\r\n        travel.travelFinish = true;\r\n   \r\n        for(uint i = 1; i<travel.numPassengersReserved + 1; i++){\r\n            if(travel.passengersPayed[i] != 0){\r\n                msg.sender.transfer(travel.prize);\r\n            }\r\n            else if(travel.travelReported[i] == 0){\r\n                msg.sender.transfer(travel.prize/2);\r\n            }\r\n            else{\r\n                msg.sender.transfer(5);\r\n            }\r\n        }\r\n    }\r\n\r\n    function makeReport(uint travelId, uint passenger) onlyPassengers(travels[travelId].passengersAddress[passenger]) public{\r\n        Travel travel = travels[travelId];\r\n       // require(now >= travel.when + 15, \"\");\r\n        travel.travelReported.push(msg.sender);\r\n    }\r\n\r\n    function getPassenger(uint travelId) public view returns(uint){\r\n        for(uint i = 1; i < travels[travelId].numPassengersReserved + 1; i++){\r\n            if(travels[travelId].passengersAddress[i] == msg.sender){\r\n                return i;\r\n            } \r\n        }\r\n        return 0;\r\n    }\r\n\r\n    struct Travel {\r\n        uint id;\r\n        string from;\r\n        string to;\r\n        uint when;\r\n        uint prize;\r\n        uint numPassengers;\r\n        uint numPassengersReserved;\r\n        address[] passengersAddress;\r\n        address[] passengersPayed;\r\n        address[] travelReported;\r\n        address driverAddress;\r\n        bool travelStarted;\r\n        bool travelFinish;\r\n    }\r\n}",
  "sourcePath": "C:\\Users\\diego.garzon.BABEL-SI\\Documents\\blablachain\\contracts\\TravelsContract.sol",
  "compiler": {
    "name": "solc",
    "version": "0.4.24+commit.e67f0147.Emscripten.clang"
  },
  "schemaVersion": "2.0.1",
  "updatedAt": "2018-11-17T03:12:02.348Z"
}