{
  "contractName": "TravelsContract",
  "abi": [
    {
      "constant": true,
      "inputs": [],
      "name": "travelsCount",
      "outputs": [
        {
          "name": "",
          "type": "uint256"
        }
      ],
      "payable": false,
      "stateMutability": "view",
      "type": "function"
    },
    {
      "inputs": [],
      "payable": false,
      "stateMutability": "nonpayable",
      "type": "constructor"
    },
    {
      "constant": false,
      "inputs": [
        {
          "name": "from",
          "type": "string"
        },
        {
          "name": "to",
          "type": "string"
        },
        {
          "name": "when",
          "type": "uint256"
        },
        {
          "name": "prize",
          "type": "uint256"
        },
        {
          "name": "passengers",
          "type": "uint256"
        }
      ],
      "name": "setTravel",
      "outputs": [
        {
          "name": "",
          "type": "uint256"
        }
      ],
      "payable": true,
      "stateMutability": "payable",
      "type": "function"
    },
    {
      "constant": true,
      "inputs": [
        {
          "name": "travelId",
          "type": "uint256"
        }
      ],
      "name": "getTravel",
      "outputs": [
        {
          "name": "",
          "type": "uint256"
        },
        {
          "name": "",
          "type": "string"
        },
        {
          "name": "",
          "type": "string"
        },
        {
          "name": "",
          "type": "uint256"
        },
        {
          "name": "",
          "type": "uint256"
        },
        {
          "name": "",
          "type": "uint256"
        }
      ],
      "payable": false,
      "stateMutability": "view",
      "type": "function"
    },
    {
      "constant": false,
      "inputs": [
        {
          "name": "travelId",
          "type": "uint256"
        }
      ],
      "name": "reserveTravel",
      "outputs": [
        {
          "name": "",
          "type": "uint256"
        }
      ],
      "payable": true,
      "stateMutability": "payable",
      "type": "function"
    },
    {
      "constant": false,
      "inputs": [
        {
          "name": "travelId",
          "type": "uint256"
        },
        {
          "name": "passenger",
          "type": "uint256"
        }
      ],
      "name": "makePayment",
      "outputs": [
        {
          "name": "",
          "type": "uint256"
        }
      ],
      "payable": true,
      "stateMutability": "payable",
      "type": "function"
    },
    {
      "constant": false,
      "inputs": [
        {
          "name": "travelId",
          "type": "uint256"
        }
      ],
      "name": "initTravel",
      "outputs": [],
      "payable": false,
      "stateMutability": "nonpayable",
      "type": "function"
    },
    {
      "constant": false,
      "inputs": [
        {
          "name": "travelId",
          "type": "uint256"
        }
      ],
      "name": "finishTravel",
      "outputs": [],
      "payable": false,
      "stateMutability": "nonpayable",
      "type": "function"
    },
    {
      "constant": false,
      "inputs": [
        {
          "name": "travelId",
          "type": "uint256"
        },
        {
          "name": "passenger",
          "type": "uint256"
        }
      ],
      "name": "makeReport",
      "outputs": [],
      "payable": false,
      "stateMutability": "nonpayable",
      "type": "function"
    },
    {
      "constant": true,
      "inputs": [
        {
          "name": "travelId",
          "type": "uint256"
        }
      ],
      "name": "getPassenger",
      "outputs": [
        {
          "name": "",
          "type": "uint256"
        }
      ],
      "payable": false,
      "stateMutability": "view",
      "type": "function"
    }
  ],
  "bytecode": "0x608060405234801561001057600080fd5b5060008081905550611534806100276000396000f300608060405260043610610099576000357c0100000000000000000000000000000000000000000000000000000000900463ffffffff1680630e5d65d71461009e57806333cc28e5146100cb5780634871e356146100ff5780637a2b59a31461012c578063b30a6ffc14610163578063c5de628614610237578063cc93247014610365578063d390f974146103a6578063f70af450146103e4575b600080fd5b3480156100aa57600080fd5b506100c96004803603810190808035906020019092919050505061040f565b005b6100e9600480360381019080803590602001909291905050506105a2565b6040518082815260200191505060405180910390f35b34801561010b57600080fd5b5061012a60048036038101908080359060200190929190505050610643565b005b34801561013857600080fd5b506101616004803603810190808035906020019092919080359060200190929190505050610938565b005b610221600480360381019080803590602001908201803590602001908080601f0160208091040260200160405190810160405280939291908181526020018383808284378201915050505050509192919290803590602001908201803590602001908080601f0160208091040260200160405190810160405280939291908181526020018383808284378201915050505050509192919290803590602001909291908035906020019092919080359060200190929190505050610b54565b6040518082815260200191505060405180910390f35b34801561024357600080fd5b5061026260048036038101908080359060200190929190505050610e14565b604051808781526020018060200180602001868152602001858152602001848152602001838103835288818151815260200191508051906020019080838360005b838110156102be5780820151818401526020810190506102a3565b50505050905090810190601f1680156102eb5780820380516001836020036101000a031916815260200191505b50838103825287818151815260200191508051906020019080838360005b83811015610324578082015181840152602081019050610309565b50505050905090810190601f1680156103515780820380516001836020036101000a031916815260200191505b509850505050505050505060405180910390f35b34801561037157600080fd5b50610390600480360381019080803590602001909291905050506110af565b6040518082815260200191505060405180910390f35b6103ce600480360381019080803590602001909291908035906020019092919050505061118d565b6040518082815260200191505060405180910390f35b3480156103f057600080fd5b506103f9611390565b6040518082815260200191505060405180910390f35b600060028281548110151561042057fe5b90600052602060002090600c0201600b0160009054906101000a900473ffffffffffffffffffffffffffffffffffffffff168073ffffffffffffffffffffffffffffffffffffffff163373ffffffffffffffffffffffffffffffffffffffff161415156104f5576040517f08c379a00000000000000000000000000000000000000000000000000000000081526004018080602001828103825260118152602001807f4e6f20647269766572204164647265737300000000000000000000000000000081525060200191505060405180910390fd5b60028381548110151561050457fe5b90600052602060002090600c02019150610384826003015401421180610531575081600601548260070154145b1515610580576040517f08c379a0000000000000000000000000000000000000000000000000000000008152600401808060200182810382526000815260200160200191505060405180910390fd5b600182600b0160146101000a81548160ff021916908315150217905550505050565b6000806002838154811015156105b457fe5b90600052602060002090600c020190508060060160008154809291906001019190505550338160080182600601548154811015156105ee57fe5b9060005260206000200160006101000a81548173ffffffffffffffffffffffffffffffffffffffff021916908373ffffffffffffffffffffffffffffffffffffffff1602179055508060060154915050919050565b60008060028381548110151561065557fe5b90600052602060002090600c0201600b0160009054906101000a900473ffffffffffffffffffffffffffffffffffffffff168073ffffffffffffffffffffffffffffffffffffffff163373ffffffffffffffffffffffffffffffffffffffff1614151561072a576040517f08c379a00000000000000000000000000000000000000000000000000000000081526004018080602001828103825260118152602001807f4e6f20647269766572204164647265737300000000000000000000000000000081525060200191505060405180910390fd5b60028481548110151561073957fe5b90600052602060002090600c02019250600183600b0160156101000a81548160ff021916908315150217905550600191505b6001836006015401821015610932576000836009018381548110151561078d57fe5b9060005260206000200160009054906101000a900473ffffffffffffffffffffffffffffffffffffffff1673ffffffffffffffffffffffffffffffffffffffff16141515610825573373ffffffffffffffffffffffffffffffffffffffff166108fc84600401549081150290604051600060405180830381858888f1935050505015801561081f573d6000803e3d6000fd5b50610925565b600083600a018381548110151561083857fe5b9060005260206000200160009054906101000a900473ffffffffffffffffffffffffffffffffffffffff1673ffffffffffffffffffffffffffffffffffffffff1614156108db573373ffffffffffffffffffffffffffffffffffffffff166108fc600285600401548115156108a957fe5b049081150290604051600060405180830381858888f193505050501580156108d5573d6000803e3d6000fd5b50610924565b3373ffffffffffffffffffffffffffffffffffffffff166108fc60059081150290604051600060405180830381858888f19350505050158015610922573d6000803e3d6000fd5b505b5b818060010192505061076b565b50505050565b600060028381548110151561094957fe5b90600052602060002090600c02016008018281548110151561096757fe5b9060005260206000200160009054906101000a900473ffffffffffffffffffffffffffffffffffffffff168073ffffffffffffffffffffffffffffffffffffffff163373ffffffffffffffffffffffffffffffffffffffff16141515610a35576040517f08c379a00000000000000000000000000000000000000000000000000000000081526004018080602001828103825260118152602001807f4e6f20647269766572204164647265737300000000000000000000000000000081525060200191505060405180910390fd5b600284815481101515610a4457fe5b90600052602060002090600c020191506103848260030154014210158015610a975750600284815481101515610a7657fe5b90600052602060002090600c0201600b0160149054906101000a900460ff16155b1515610ae6576040517f08c379a0000000000000000000000000000000000000000000000000000000008152600401808060200182810382526000815260200160200191505060405180910390fd5b81600a013390806001815401808255809150509060018203906000526020600020016000909192909190916101000a81548173ffffffffffffffffffffffffffffffffffffffff021916908373ffffffffffffffffffffffffffffffffffffffff1602179055505050505050565b6000806000815480929190600101919050555060026101c0604051908101604052806000548152602001888152602001878152602001868152602001858152602001848152602001600181526020016000815260200160018501604051908082528060200260200182016040528015610bdc5781602001602082028038833980820191505090505b50815260200160018501604051908082528060200260200182016040528015610c145781602001602082028038833980820191505090505b50815260200160018501604051908082528060200260200182016040528015610c4c5781602001602082028038833980820191505090505b5081526020013373ffffffffffffffffffffffffffffffffffffffff168152602001600015158152602001600015158152509080600181540180825580915050906001820390600052602060002090600c020160009091929091909150600082015181600001556020820151816001019080519060200190610ccf929190611396565b506040820151816002019080519060200190610cec929190611396565b50606082015181600301556080820151816004015560a0820151816005015560c0820151816006015560e08201518160070155610100820151816008019080519060200190610d3c929190611416565b50610120820151816009019080519060200190610d5a929190611416565b5061014082015181600a019080519060200190610d78929190611416565b5061016082015181600b0160006101000a81548173ffffffffffffffffffffffffffffffffffffffff021916908373ffffffffffffffffffffffffffffffffffffffff16021790555061018082015181600b0160146101000a81548160ff0219169083151502179055506101a082015181600b0160156101000a81548160ff021916908315150217905550505050600054905095945050505050565b60006060806000806000600287815481101515610e2d57fe5b90600052602060002090600c0201600b0160159054906101000a900460ff16151561105f57600287815481101515610e6157fe5b90600052602060002090600c020160000154600288815481101515610e8257fe5b90600052602060002090600c0201600101600289815481101515610ea257fe5b90600052602060002090600c020160020160028a815481101515610ec257fe5b90600052602060002090600c02016003015460028b815481101515610ee357fe5b90600052602060002090600c02016005015460028c815481101515610f0457fe5b90600052602060002090600c020160060154848054600181600116156101000203166002900480601f016020809104026020016040519081016040528092919081815260200182805460018160011615610100020316600290048015610fab5780601f10610f8057610100808354040283529160200191610fab565b820191906000526020600020905b815481529060010190602001808311610f8e57829003601f168201915b50505050509450838054600181600116156101000203166002900480601f0160208091040260200160405190810160405280929190818152602001828054600181600116156101000203166002900480156110475780601f1061101c57610100808354040283529160200191611047565b820191906000526020600020905b81548152906001019060200180831161102a57829003601f168201915b505050505093509550955095509550955095506110a6565b600080600080839350602060405190810160405280600081525092919060206040519081016040528060008152509291908292508191508090509550955095509550955095505b91939550919395565b600080600190505b60016002848154811015156110c857fe5b90600052602060002090600c02016006015401811015611182573373ffffffffffffffffffffffffffffffffffffffff1660028481548110151561110857fe5b90600052602060002090600c02016008018281548110151561112657fe5b9060005260206000200160009054906101000a900473ffffffffffffffffffffffffffffffffffffffff1673ffffffffffffffffffffffffffffffffffffffff16141561117557809150611187565b80806001019150506110b7565b600091505b50919050565b60008060028481548110151561119f57fe5b90600052602060002090600c0201600801838154811015156111bd57fe5b9060005260206000200160009054906101000a900473ffffffffffffffffffffffffffffffffffffffff168073ffffffffffffffffffffffffffffffffffffffff163373ffffffffffffffffffffffffffffffffffffffff1614151561128b576040517f08c379a00000000000000000000000000000000000000000000000000000000081526004018080602001828103825260118152602001807f4e6f20647269766572204164647265737300000000000000000000000000000081525060200191505060405180910390fd5b60028581548110151561129a57fe5b90600052602060002090600c02019150600282600401548115156112ba57fe5b043414151561130c576040517f08c379a0000000000000000000000000000000000000000000000000000000008152600401808060200182810382526000815260200160200191505060405180910390fd5b816009013390806001815401808255809150509060018203906000526020600020016000909192909190916101000a81548173ffffffffffffffffffffffffffffffffffffffff021916908373ffffffffffffffffffffffffffffffffffffffff160217905550508160070160008154809291906001019190505550505092915050565b60005481565b828054600181600116156101000203166002900490600052602060002090601f016020900481019282601f106113d757805160ff1916838001178555611405565b82800160010185558215611405579182015b828111156114045782518255916020019190600101906113e9565b5b50905061141291906114a0565b5090565b82805482825590600052602060002090810192821561148f579160200282015b8281111561148e5782518260006101000a81548173ffffffffffffffffffffffffffffffffffffffff021916908373ffffffffffffffffffffffffffffffffffffffff16021790555091602001919060010190611436565b5b50905061149c91906114c5565b5090565b6114c291905b808211156114be5760008160009055506001016114a6565b5090565b90565b61150591905b8082111561150157600081816101000a81549073ffffffffffffffffffffffffffffffffffffffff0219169055506001016114cb565b5090565b905600a165627a7a723058205f30834c8005efb6f74563c6131c917aaccb7503d29bc718734b24c37882456c0029",
  "source": "// solium-disable linebreak-style\npragma solidity ^0.4.24;\n\ncontract TravelsContract {\n  // Array pets owners\n    uint public travelsCount;\n    uint[] travelsId;\n    Travel[] private travels;\n\n    constructor() public {\n        travelsCount = 0;\n    }\n\n    modifier onlyDriver(address _driverAdrress) {\n        require(msg.sender == _driverAdrress, \"No driver Address\");\n        _;\n    }\n\n    modifier onlyPassengers(address _passengerAdrress){\n        require(msg.sender == _passengerAdrress, \"No driver Address\");\n        _;\n    }\n\n  // Adopting pet function\n    function setTravel(string from, string to, uint when, uint prize, uint passengers) public payable returns (uint){\n        //require(msg.value == 5 * passengers && passengers >= 1, \"\");\n        travelsCount++;\n        travels.push(\n            Travel(travelsCount, from, to, when, prize, passengers, 1, 0, new address[](passengers+1), new address[](passengers+1), new address[](passengers+1), msg.sender, false, false));\n        return travelsCount;\n    }\n\n    function getTravel(uint travelId) public view returns(uint, string, string, uint, uint, uint){\n        if(!travels[travelId].travelFinish){\n            return(\n            travels[travelId].id,\n            travels[travelId].from,\n            travels[travelId].to,\n            travels[travelId].when,\n            travels[travelId].numPassengers,\n            travels[travelId].numPassengersReserved);\n        }\n        else {\n            return(0,\"\",\"\",0,0, 0);\n        }\n\n    }\n\n    function reserveTravel(uint travelId) public payable returns (uint){\n        Travel storage travel = travels[travelId];\n       // require(msg.value == travel.prize/2 && travel.numPassengersReserved < travel.numPassengers, \"\");\n        travel.numPassengersReserved++;\n        travel.passengersAddress[travel.numPassengersReserved] = msg.sender;\n        return travel.numPassengersReserved;\n    }\n\n    function makePayment(uint travelId, uint passenger) public\n    onlyPassengers(travels[travelId].passengersAddress[passenger]) payable returns (uint) {\n        Travel storage travel = travels[travelId];\n        require(msg.value == travel.prize / 2, \"\");\n        travel.passengersPayed.push(msg.sender);\n        travel.numPassengersPayed++;\n    }\n\n    function initTravel(uint travelId) public onlyDriver(travels[travelId].driverAddress) {\n        Travel travel = travels[travelId];\n        require(now > travel.when + 15*60 || travel.numPassengersPayed == travel.numPassengersReserved, \"\");\n        travel.travelStarted = true;\n    }\n\n    function finishTravel(uint travelId) public onlyDriver(travels[travelId].driverAddress) {\n        Travel storage travel = travels[travelId];\n        travel.travelFinish = true;\n\n        for(uint i = 1; i<travel.numPassengersReserved + 1; i++){\n            if(travel.passengersPayed[i] != 0){\n                msg.sender.transfer(travel.prize);\n            }\n            else if(travel.travelReported[i] == 0){\n                msg.sender.transfer(travel.prize/2);\n            }\n            else{\n                msg.sender.transfer(5);\n            }\n        }\n    }\n\n    function makeReport(uint travelId, uint passenger) onlyPassengers(travels[travelId].passengersAddress[passenger]) public{\n        Travel travel = travels[travelId];\n        require(now >= travel.when + 15*60 && !travels[travelId].travelStarted, \"\");\n        travel.travelReported.push(msg.sender);\n    }\n\n    function getPassenger(uint travelId) public view returns(uint){\n        for(uint i = 1; i < travels[travelId].numPassengersReserved + 1; i++){\n            if(travels[travelId].passengersAddress[i] == msg.sender){\n                return i;\n            }\n        }\n        return 0;\n    }\n\n    struct Travel {\n        uint id;\n        string from;\n        string to;\n        uint when;\n        uint prize;\n        uint numPassengers;\n        uint numPassengersReserved;\n        uint numPassengersPayed;\n        address[] passengersAddress;\n        address[] passengersPayed;\n        address[] travelReported;\n        address driverAddress;\n        bool travelStarted;\n        bool travelFinish;\n    }\n}\n",
  "sourcePath": "/Users/jorge.gonzalez.local/projects/blockchain/blablachain/contracts/TravelsContract.sol",
  "compiler": {
    "name": "solc",
    "version": "0.4.24+commit.e67f0147.Emscripten.clang"
  },
  "schemaVersion": "2.0.1",
  "updatedAt": "2018-11-17T09:01:58.614Z"
}